{
  "contractName": "DocStamp",
  "abi": [
    {
      "constant": true,
      "inputs": [
        {
          "name": "",
          "type": "bytes32"
        }
      ],
      "name": "records",
      "outputs": [
        {
          "name": "",
          "type": "address"
        }
      ],
      "payable": false,
      "stateMutability": "view",
      "type": "function"
    },
    {
      "constant": true,
      "inputs": [],
      "name": "owner",
      "outputs": [
        {
          "name": "",
          "type": "address"
        }
      ],
      "payable": false,
      "stateMutability": "view",
      "type": "function"
    },
    {
      "constant": true,
      "inputs": [
        {
          "name": "",
          "type": "bytes32"
        }
      ],
      "name": "timestamps",
      "outputs": [
        {
          "name": "",
          "type": "uint256"
        }
      ],
      "payable": false,
      "stateMutability": "view",
      "type": "function"
    },
    {
      "constant": false,
      "inputs": [
        {
          "name": "newOwner",
          "type": "address"
        }
      ],
      "name": "transferOwnership",
      "outputs": [],
      "payable": false,
      "stateMutability": "nonpayable",
      "type": "function"
    },
    {
      "anonymous": false,
      "inputs": [
        {
          "indexed": true,
          "name": "record",
          "type": "bytes32"
        },
        {
          "indexed": true,
          "name": "stamper",
          "type": "address"
        },
        {
          "indexed": false,
          "name": "timestamp",
          "type": "uint256"
        }
      ],
      "name": "_DocStamped",
      "type": "event"
    },
    {
      "anonymous": false,
      "inputs": [
        {
          "indexed": true,
          "name": "previousOwner",
          "type": "address"
        },
        {
          "indexed": true,
          "name": "newOwner",
          "type": "address"
        }
      ],
      "name": "OwnershipTransferred",
      "type": "event"
    },
    {
      "constant": false,
      "inputs": [
        {
          "name": "record",
          "type": "bytes32"
        }
      ],
      "name": "stamp",
      "outputs": [],
      "payable": false,
      "stateMutability": "nonpayable",
      "type": "function"
    },
    {
      "constant": true,
      "inputs": [
        {
          "name": "record",
          "type": "bytes32"
        }
      ],
      "name": "exists",
      "outputs": [
        {
          "name": "",
          "type": "bool"
        }
      ],
      "payable": false,
      "stateMutability": "view",
      "type": "function"
    },
    {
      "constant": true,
      "inputs": [
        {
          "name": "record",
          "type": "bytes32"
        }
      ],
      "name": "getStamper",
      "outputs": [
        {
          "name": "",
          "type": "address"
        }
      ],
      "payable": false,
      "stateMutability": "view",
      "type": "function"
    },
    {
      "constant": true,
      "inputs": [
        {
          "name": "record",
          "type": "bytes32"
        }
      ],
      "name": "getTimestamp",
      "outputs": [
        {
          "name": "",
          "type": "uint256"
        }
      ],
      "payable": false,
      "stateMutability": "view",
      "type": "function"
    },
    {
      "constant": true,
      "inputs": [
        {
          "name": "record",
          "type": "bytes32"
        }
      ],
      "name": "didStamp",
      "outputs": [
        {
          "name": "",
          "type": "bool"
        }
      ],
      "payable": false,
      "stateMutability": "view",
      "type": "function"
    },
    {
      "constant": true,
      "inputs": [
        {
          "name": "record",
          "type": "bytes32"
        },
        {
          "name": "stamper",
          "type": "address"
        }
      ],
      "name": "isStamper",
      "outputs": [
        {
          "name": "",
          "type": "bool"
        }
      ],
      "payable": false,
      "stateMutability": "view",
      "type": "function"
    },
    {
      "constant": true,
      "inputs": [
        {
          "name": "hash",
          "type": "bytes32"
        },
        {
          "name": "sig",
          "type": "bytes"
        }
      ],
      "name": "ecrecovery",
      "outputs": [
        {
          "name": "",
          "type": "address"
        }
      ],
      "payable": false,
      "stateMutability": "view",
      "type": "function"
    },
    {
      "constant": true,
      "inputs": [
        {
          "name": "hash",
          "type": "bytes32"
        },
        {
          "name": "sig",
          "type": "bytes"
        },
        {
          "name": "signer",
          "type": "address"
        }
      ],
      "name": "ecverify",
      "outputs": [
        {
          "name": "",
          "type": "bool"
        }
      ],
      "payable": false,
      "stateMutability": "view",
      "type": "function"
    }
  ],
  "bytecode": "0x6080604052336000806101000a81548173ffffffffffffffffffffffffffffffffffffffff021916908373ffffffffffffffffffffffffffffffffffffffff160217905550610c99806100536000396000f3006080604052600436106100ba576000357c0100000000000000000000000000000000000000000000000000000000900463ffffffff16806301e64725146100bf57806328073edf1461013057806338a699a41461019957806339cdde32146101e257806377d32e94146102915780638ade01a4146103485780638c32d9a6146103915780638da5cb5b14610402578063b587295814610459578063d45c44351461049e578063dd89581f146104e3578063f2fde38b14610514575b600080fd5b3480156100cb57600080fd5b506100ee6004803603810190808035600019169060200190929190505050610557565b604051808273ffffffffffffffffffffffffffffffffffffffff1673ffffffffffffffffffffffffffffffffffffffff16815260200191505060405180910390f35b34801561013c57600080fd5b5061017f6004803603810190808035600019169060200190929190803573ffffffffffffffffffffffffffffffffffffffff16906020019092919050505061058a565b604051808215151515815260200191505060405180910390f35b3480156101a557600080fd5b506101c8600480360381019080803560001916906020019092919050505061061b565b604051808215151515815260200191505060405180910390f35b3480156101ee57600080fd5b506102776004803603810190808035600019169060200190929190803590602001908201803590602001908080601f0160208091040260200160405190810160405280939291908181526020018383808284378201915050505050509192919290803573ffffffffffffffffffffffffffffffffffffffff1690602001909291905050506106b2565b604051808215151515815260200191505060405180910390f35b34801561029d57600080fd5b506103066004803603810190808035600019169060200190929190803590602001908201803590602001908080601f01602080910402602001604051908101604052809392919081815260200183838082843782019150505050505091929192905050506106f5565b604051808273ffffffffffffffffffffffffffffffffffffffff1673ffffffffffffffffffffffffffffffffffffffff16815260200191505060405180910390f35b34801561035457600080fd5b5061037760048036038101908080356000191690602001909291905050506107ed565b604051808215151515815260200191505060405180910390f35b34801561039d57600080fd5b506103c0600480360381019080803560001916906020019092919050505061087d565b604051808273ffffffffffffffffffffffffffffffffffffffff1673ffffffffffffffffffffffffffffffffffffffff16815260200191505060405180910390f35b34801561040e57600080fd5b506104176108df565b604051808273ffffffffffffffffffffffffffffffffffffffff1673ffffffffffffffffffffffffffffffffffffffff16815260200191505060405180910390f35b34801561046557600080fd5b506104886004803603810190808035600019169060200190929190505050610904565b6040518082815260200191505060405180910390f35b3480156104aa57600080fd5b506104cd600480360381019080803560001916906020019092919050505061091c565b6040518082815260200191505060405180910390f35b3480156104ef57600080fd5b50610512600480360381019080803560001916906020019092919050505061095e565b005b34801561052057600080fd5b50610555600480360381019080803573ffffffffffffffffffffffffffffffffffffffff169060200190929190505050610b18565b005b60016020528060005260406000206000915054906101000a900473ffffffffffffffffffffffffffffffffffffffff1681565b60008173ffffffffffffffffffffffffffffffffffffffff16600160008560405180826000191660001916815260200191505060405180910390206000191660001916815260200190815260200160002060009054906101000a900473ffffffffffffffffffffffffffffffffffffffff1673ffffffffffffffffffffffffffffffffffffffff1614905092915050565b6000808260405180826000191660001916815260200191505060405180910390209050600073ffffffffffffffffffffffffffffffffffffffff1660016000836000191660001916815260200190815260200160002060009054906101000a900473ffffffffffffffffffffffffffffffffffffffff1673ffffffffffffffffffffffffffffffffffffffff161415915050919050565b60006106be84846106f5565b73ffffffffffffffffffffffffffffffffffffffff168273ffffffffffffffffffffffffffffffffffffffff161490509392505050565b6000806000806041855114151561070f57600093506107e4565b602085015192506040850151915060ff6041860151169050601b8160ff16101561073a57601b810190505b601b8160ff16141580156107525750601c8160ff1614155b1561076057600093506107e4565b600186828585604051600081526020016040526040518085600019166000191681526020018460ff1660ff1681526020018360001916600019168152602001826000191660001916815260200194505050505060206040516020810390808403906000865af11580156107d7573d6000803e3d6000fd5b5050506020604051035193505b50505092915050565b60003373ffffffffffffffffffffffffffffffffffffffff16600160008460405180826000191660001916815260200191505060405180910390206000191660001916815260200190815260200160002060009054906101000a900473ffffffffffffffffffffffffffffffffffffffff1673ffffffffffffffffffffffffffffffffffffffff16149050919050565b6000600160008360405180826000191660001916815260200191505060405180910390206000191660001916815260200190815260200160002060009054906101000a900473ffffffffffffffffffffffffffffffffffffffff169050919050565b6000809054906101000a900473ffffffffffffffffffffffffffffffffffffffff1681565b60026020528060005260406000206000915090505481565b60006002600083604051808260001916600019168152602001915050604051809103902060001916600019168152602001908152602001600020549050919050565b600081604051808260001916600019168152602001915050604051809103902090506040518060000190506040518091039020600019168160001916141515156109a757600080fd5b600073ffffffffffffffffffffffffffffffffffffffff1660016000836000191660001916815260200190815260200160002060009054906101000a900473ffffffffffffffffffffffffffffffffffffffff1673ffffffffffffffffffffffffffffffffffffffff16141515610a1d57600080fd5b600060026000836000191660001916815260200190815260200160002054141515610a4757600080fd5b3360016000836000191660001916815260200190815260200160002060006101000a81548173ffffffffffffffffffffffffffffffffffffffff021916908373ffffffffffffffffffffffffffffffffffffffff16021790555042600260008360001916600019168152602001908152602001600020819055503373ffffffffffffffffffffffffffffffffffffffff1681600019167ff89c7c6203cd979ded19b0275133041d46e64b693f750b95926cecedef975ab7426040518082815260200191505060405180910390a35050565b6000809054906101000a900473ffffffffffffffffffffffffffffffffffffffff1673ffffffffffffffffffffffffffffffffffffffff163373ffffffffffffffffffffffffffffffffffffffff16141515610b7357600080fd5b600073ffffffffffffffffffffffffffffffffffffffff168173ffffffffffffffffffffffffffffffffffffffff1614151515610baf57600080fd5b8073ffffffffffffffffffffffffffffffffffffffff166000809054906101000a900473ffffffffffffffffffffffffffffffffffffffff1673ffffffffffffffffffffffffffffffffffffffff167f8be0079c531659141344cd1fd0a4f28419497f9722a3daafe3b4186f6b6457e060405160405180910390a3806000806101000a81548173ffffffffffffffffffffffffffffffffffffffff021916908373ffffffffffffffffffffffffffffffffffffffff160217905550505600a165627a7a72305820cf16c048b83c82c9506152ecb204817e5bc3b4bf631cda132b88b273e7fee7e90029",
  "source": "pragma solidity ^0.4.4;\r\n\r\nimport './Ownable.sol';\r\n\r\ncontract DocStamp is Ownable {\r\n  mapping (bytes32 => address) public records;\r\n  mapping (bytes32 => uint256) public timestamps;\r\n\r\n  event _DocStamped(bytes32 indexed record, address indexed stamper, uint256 timestamp);\r\n\r\n  function stamp(bytes32 record) external {\r\n    bytes32 hash = keccak256(record);\r\n    require(hash != keccak256(\"\"));\r\n    require(records[hash] == address(0));\r\n    require(timestamps[hash] == 0);\r\n    records[hash] = msg.sender;\r\n    timestamps[hash] = block.timestamp;\r\n\r\n    _DocStamped(hash, msg.sender, block.timestamp);\r\n  }\r\n\r\n  function exists(bytes32 record) constant returns (bool) {\r\n    bytes32 hash = keccak256(record);\r\n    return records[hash] != address(0);\r\n  }\r\n\r\n  function getStamper(bytes32 record) constant returns (address) {\r\n    return records[keccak256(record)];\r\n  }\r\n\r\n  function getTimestamp(bytes32 record) constant returns (uint256) {\r\n    return timestamps[keccak256(record)];\r\n  }\r\n\r\n  function didStamp(bytes32 record) constant returns (bool) {\r\n    return records[keccak256(record)] == msg.sender;\r\n  }\r\n\r\n  function isStamper(bytes32 record, address stamper) constant returns (bool) {\r\n    return records[keccak256(record)] == stamper;\r\n  }\r\n\r\n  function ecrecovery(bytes32 hash, bytes sig) public constant returns (address) {\r\n    bytes32 r;\r\n    bytes32 s;\r\n    uint8 v;\r\n\r\n    if (sig.length != 65) {\r\n      return 0;\r\n    }\r\n\r\n    assembly {\r\n      r := mload(add(sig, 32))\r\n      s := mload(add(sig, 64))\r\n      v := and(mload(add(sig, 65)), 255)\r\n    }\r\n\r\n    // https://github.com/ethereum/go-ethereum/issues/2053\r\n    if (v < 27) {\r\n      v += 27;\r\n    }\r\n\r\n    if (v != 27 && v != 28) {\r\n      return 0;\r\n    }\r\n\r\n    return ecrecover(hash, v, r, s);\r\n  }\r\n\r\n  function ecverify(bytes32 hash, bytes sig, address signer) public constant returns (bool) {\r\n    return signer == ecrecovery(hash, sig);\r\n  }\r\n}\r\n",
  "sourcePath": "D:\\KULIAH\\SEMESTER 3\\3_PROYEK3\\AppDev\\trial and error docstamp\\contracts\\DocStamp.sol",
  "compiler": {
    "name": "solc",
    "version": "0.4.24+commit.e67f0147.Emscripten.clang"
  },
  "schemaVersion": "2.0.1",
  "updatedAt": "2018-11-20T05:07:46.320Z"
}